S01700004763634170706C69636174696F6E322E737265635A
S11300000C943D000C9452000C9452000C94520039
S11300100C9452000C9452000C9452000C94520014
S11300200C9452000C9452000C9452000C94520004
S11300300C9452000C9452000C9452000C945200F4
S11300400C9452000C9452000C9452000C945200E4
S11300500C9452000C9452000C9452000C945200D4
S11300600C9452000C9452008D0093009E00A90041
S1130070B300BE00CB00D200E10011241FBECFEFBD
S1130080D8E0DEBFCDBF11E0A0E0B1E0EAE9F2E0E4
S113009002C005900D92A030B107D9F70E942D013E
S11300A00C944B010C9400008BB187708BB90895AC
S11300B085B1887F85B908950E9454000E94580034
S11300C00895FC014A9BFECF8FE39CE90197F1F769
S11300D000C000004A99F6CF85B190E2982795B9FF
S11300E090819F5F908308951F93CF93DF93CDB743
S11300F0DEB728970FB6F894DEBF0FBECDBFDC0184
S1130100EC914E2F50E0FA013197E930F10508F0F7
S113011065C0EC5CFF4F0C94450187E0898384E063
S11301208A8312E087C0198287E08A8382E08B8306
S113013086E08C8385E08D8315E07CC0198287E09E
S11301408A8382E08B8384E08C8385E08D8315E051
S113015071C081E0898382E08A8387E08B8384E0B5
S11301608C8314E067C0198281E08A8382E08B83E8
S113017084E08C8385E08D8315E05CC0198281E086
S11301808A8382E08B8384E08C8386E08D8385E0A0
S11301908E8316E04FC0198287E08A8384E08B83C4
S11301A013E048C0198287E08A8384E08B8385E06A
S11301B08C8386E08D8381E08E8382E08F8317E0D9
S11301C039C0198287E08A8384E08B8385E08C833D
S11301D081E08D8382E08E8316E02CC027E02983A2
S11301E024E02A8325E02B8326E02C831D8221E052
S11301F02E83FC01108216E01DC08191833058F4D7
S113020065B1DA0102C0AA0FBB1F8A95E2F7CD01DE
S1130210862B85B90AC06BB1DA0102C0AA0FBB1FD5
S11302208A95E2F7CD01862B8BB98E2F821B81171D
S113023020F309C00E945C009E012F5F3F4FF9012B
S113024041E050E0DACF28960FB6F894DEBF0FBE37
S1130250CDBFDF91CF911F910895CF93DF931F926C
S1130260CDB7DEB75298259A8AB1886F8AB984B11E
S1130270876084B95A9A1982CE0101960E9474004B
S1130280CE0101960E946100F7CFEE0FFF1F05908B
S10D0290F491E02D0994F894FFCFD7
S9030000FC
